{
  "_format": "hh-sol-artifact-1",
  "contractName": "Escrow",
  "sourceName": "contracts/Escrow.sol",
  "abi": [
    {
      "inputs": [
        {
          "internalType": "address",
          "name": "_manager",
          "type": "address"
        }
      ],
      "stateMutability": "nonpayable",
      "type": "constructor"
    },
    {
      "anonymous": false,
      "inputs": [
        {
          "indexed": true,
          "internalType": "address",
          "name": "user",
          "type": "address"
        }
      ],
      "name": "Blacklisted",
      "type": "event"
    },
    {
      "anonymous": false,
      "inputs": [
        {
          "indexed": true,
          "internalType": "address",
          "name": "from",
          "type": "address"
        },
        {
          "indexed": false,
          "internalType": "uint256",
          "name": "amount",
          "type": "uint256"
        }
      ],
      "name": "Deposited",
      "type": "event"
    },
    {
      "anonymous": false,
      "inputs": [
        {
          "indexed": true,
          "internalType": "address",
          "name": "user",
          "type": "address"
        }
      ],
      "name": "Revoked",
      "type": "event"
    },
    {
      "anonymous": false,
      "inputs": [
        {
          "indexed": true,
          "internalType": "address",
          "name": "user",
          "type": "address"
        },
        {
          "indexed": false,
          "internalType": "uint256",
          "name": "allowance",
          "type": "uint256"
        }
      ],
      "name": "Whitelisted",
      "type": "event"
    },
    {
      "anonymous": false,
      "inputs": [
        {
          "indexed": true,
          "internalType": "address",
          "name": "user",
          "type": "address"
        },
        {
          "indexed": false,
          "internalType": "uint256",
          "name": "amount",
          "type": "uint256"
        }
      ],
      "name": "Withdrawn",
      "type": "event"
    },
    {
      "inputs": [
        {
          "internalType": "address",
          "name": "",
          "type": "address"
        }
      ],
      "name": "beneficiaries",
      "outputs": [
        {
          "internalType": "uint256",
          "name": "allowance",
          "type": "uint256"
        },
        {
          "internalType": "uint256",
          "name": "withdrawn",
          "type": "uint256"
        },
        {
          "internalType": "bool",
          "name": "whitelisted",
          "type": "bool"
        }
      ],
      "stateMutability": "view",
      "type": "function"
    },
    {
      "inputs": [
        {
          "internalType": "address",
          "name": "_user",
          "type": "address"
        }
      ],
      "name": "blacklist",
      "outputs": [],
      "stateMutability": "nonpayable",
      "type": "function"
    },
    {
      "inputs": [
        {
          "internalType": "address",
          "name": "_user",
          "type": "address"
        }
      ],
      "name": "getAllowance",
      "outputs": [
        {
          "internalType": "uint256",
          "name": "",
          "type": "uint256"
        },
        {
          "internalType": "uint256",
          "name": "",
          "type": "uint256"
        },
        {
          "internalType": "bool",
          "name": "",
          "type": "bool"
        }
      ],
      "stateMutability": "view",
      "type": "function"
    },
    {
      "inputs": [],
      "name": "getTransactions",
      "outputs": [
        {
          "components": [
            {
              "internalType": "address",
              "name": "user",
              "type": "address"
            },
            {
              "internalType": "uint256",
              "name": "amount",
              "type": "uint256"
            },
            {
              "internalType": "string",
              "name": "action",
              "type": "string"
            }
          ],
          "internalType": "struct Escrow.Txn[]",
          "name": "",
          "type": "tuple[]"
        }
      ],
      "stateMutability": "view",
      "type": "function"
    },
    {
      "inputs": [],
      "name": "manager",
      "outputs": [
        {
          "internalType": "address",
          "name": "",
          "type": "address"
        }
      ],
      "stateMutability": "view",
      "type": "function"
    },
    {
      "inputs": [],
      "name": "mapSize",
      "outputs": [
        {
          "internalType": "uint256",
          "name": "",
          "type": "uint256"
        }
      ],
      "stateMutability": "view",
      "type": "function"
    },
    {
      "inputs": [],
      "name": "owner",
      "outputs": [
        {
          "internalType": "address",
          "name": "",
          "type": "address"
        }
      ],
      "stateMutability": "view",
      "type": "function"
    },
    {
      "inputs": [
        {
          "internalType": "address",
          "name": "_user",
          "type": "address"
        }
      ],
      "name": "revoke",
      "outputs": [],
      "stateMutability": "nonpayable",
      "type": "function"
    },
    {
      "inputs": [
        {
          "internalType": "uint256",
          "name": "",
          "type": "uint256"
        }
      ],
      "name": "txns",
      "outputs": [
        {
          "internalType": "address",
          "name": "user",
          "type": "address"
        },
        {
          "internalType": "uint256",
          "name": "amount",
          "type": "uint256"
        },
        {
          "internalType": "string",
          "name": "action",
          "type": "string"
        }
      ],
      "stateMutability": "view",
      "type": "function"
    },
    {
      "inputs": [
        {
          "internalType": "address",
          "name": "_user",
          "type": "address"
        },
        {
          "internalType": "uint256",
          "name": "_allowed",
          "type": "uint256"
        }
      ],
      "name": "whitelist",
      "outputs": [
        {
          "internalType": "bool",
          "name": "",
          "type": "bool"
        }
      ],
      "stateMutability": "nonpayable",
      "type": "function"
    },
    {
      "inputs": [
        {
          "internalType": "uint256",
          "name": "_amount",
          "type": "uint256"
        }
      ],
      "name": "withdraw",
      "outputs": [],
      "stateMutability": "nonpayable",
      "type": "function"
    },
    {
      "stateMutability": "payable",
      "type": "receive"
    }
  ],
  "bytecode": "0x608060405234801561001057600080fd5b50604051611baf380380611baf8339818101604052810190610032919061011c565b806000806101000a81548173ffffffffffffffffffffffffffffffffffffffff021916908373ffffffffffffffffffffffffffffffffffffffff16021790555033600160006101000a81548173ffffffffffffffffffffffffffffffffffffffff021916908373ffffffffffffffffffffffffffffffffffffffff16021790555050610149565b600080fd5b600073ffffffffffffffffffffffffffffffffffffffff82169050919050565b60006100e9826100be565b9050919050565b6100f9816100de565b811461010457600080fd5b50565b600081519050610116816100f0565b92915050565b600060208284031215610132576101316100b9565b5b600061014084828501610107565b91505092915050565b611a57806101586000396000f3fe6080604052600436106100a05760003560e01c806383920e901161006457806383920e90146102db5780638da5cb5b1461030657806398fc55d814610331578063daa105601461036e578063eb5a662e146103ad578063f9f92be4146103ec576101ef565b806301567739146101f45780631a32ebb6146102335780632e1a7d4d1461025e578063481c6a751461028757806374a8f103146102b2576101ef565b366101ef57600360405180606001604052803373ffffffffffffffffffffffffffffffffffffffff1681526020013481526020016040518060400160405280600781526020017f6465706f73697400000000000000000000000000000000000000000000000000815250815250908060018154018082558091505060019003906000526020600020906003020160009091909190915060008201518160000160006101000a81548173ffffffffffffffffffffffffffffffffffffffff021916908373ffffffffffffffffffffffffffffffffffffffff16021790555060208201518160010155604082015181600201908161019c91906111f0565b5050503373ffffffffffffffffffffffffffffffffffffffff167f2da466a7b24304f47e87fa2e1e5a81b9831ce54fec19055ce277ca2f39ba42c4346040516101e591906112d1565b60405180910390a2005b600080fd5b34801561020057600080fd5b5061021b6004803603810190610216919061134f565b610415565b60405161022a93929190611397565b60405180910390f35b34801561023f57600080fd5b5061024861044c565b60405161025591906112d1565b60405180910390f35b34801561026a57600080fd5b50610285600480360381019061028091906113fa565b610452565b005b34801561029357600080fd5b5061029c61076b565b6040516102a99190611436565b60405180910390f35b3480156102be57600080fd5b506102d960048036038101906102d4919061134f565b61078f565b005b3480156102e757600080fd5b506102f0610965565b6040516102fd9190611606565b60405180910390f35b34801561031257600080fd5b5061031b610ab6565b6040516103289190611436565b60405180910390f35b34801561033d57600080fd5b5061035860048036038101906103539190611628565b610adc565b6040516103659190611668565b60405180910390f35b34801561037a57600080fd5b50610395600480360381019061039091906113fa565b610c47565b6040516103a4939291906116cd565b60405180910390f35b3480156103b957600080fd5b506103d460048036038101906103cf919061134f565b610d29565b6040516103e393929190611397565b60405180910390f35b3480156103f857600080fd5b50610413600480360381019061040e919061134f565b610d9a565b005b60046020528060005260406000206000915090508060000154908060010154908060020160009054906101000a900460ff16905083565b60025481565b600460003373ffffffffffffffffffffffffffffffffffffffff1673ffffffffffffffffffffffffffffffffffffffff16815260200190815260200160002060020160009054906101000a900460ff166104e1576040517f08c379a00000000000000000000000000000000000000000000000000000000081526004016104d890611757565b60405180910390fd5b6000600460003373ffffffffffffffffffffffffffffffffffffffff1673ffffffffffffffffffffffffffffffffffffffff168152602001908152602001600020905081816001015461053491906117a6565b8160000154101561057a576040517f08c379a000000000000000000000000000000000000000000000000000000000815260040161057190611826565b60405180910390fd5b814710156105bd576040517f08c379a00000000000000000000000000000000000000000000000000000000081526004016105b490611892565b60405180910390fd5b818160010160008282546105d191906117a6565b925050819055503373ffffffffffffffffffffffffffffffffffffffff166108fc839081150290604051600060405180830381858888f1935050505015801561061e573d6000803e3d6000fd5b50600360405180606001604052803373ffffffffffffffffffffffffffffffffffffffff1681526020018481526020016040518060400160405280600881526020017f7769746864726177000000000000000000000000000000000000000000000000815250815250908060018154018082558091505060019003906000526020600020906003020160009091909190915060008201518160000160006101000a81548173ffffffffffffffffffffffffffffffffffffffff021916908373ffffffffffffffffffffffffffffffffffffffff16021790555060208201518160010155604082015181600201908161071691906111f0565b5050503373ffffffffffffffffffffffffffffffffffffffff167f7084f5476618d8e60b11ef0d7d3f06914655adb8793e28ff7f018d4c76d505d58360405161075f91906112d1565b60405180910390a25050565b60008054906101000a900473ffffffffffffffffffffffffffffffffffffffff1681565b60008054906101000a900473ffffffffffffffffffffffffffffffffffffffff1673ffffffffffffffffffffffffffffffffffffffff163373ffffffffffffffffffffffffffffffffffffffff161461081d576040517f08c379a000000000000000000000000000000000000000000000000000000000815260040161081490611924565b60405180910390fd5b600460008273ffffffffffffffffffffffffffffffffffffffff1673ffffffffffffffffffffffffffffffffffffffff16815260200190815260200160002060020160009054906101000a900460ff166108ac576040517f08c379a00000000000000000000000000000000000000000000000000000000081526004016108a390611990565b60405180910390fd5b6000600460008373ffffffffffffffffffffffffffffffffffffffff1673ffffffffffffffffffffffffffffffffffffffff16815260200190815260200160002060020160006101000a81548160ff0219169083151502179055506002600081548092919061091a906119b0565b91905055508073ffffffffffffffffffffffffffffffffffffffff167fb6fa8b8bd5eab60f292eca876e3ef90722275b785309d84b1de113ce0b8c4e7460405160405180910390a250565b60606003805480602002602001604051908101604052809291908181526020016000905b82821015610aad57838290600052602060002090600302016040518060600160405290816000820160009054906101000a900473ffffffffffffffffffffffffffffffffffffffff1673ffffffffffffffffffffffffffffffffffffffff1673ffffffffffffffffffffffffffffffffffffffff16815260200160018201548152602001600282018054610a1c90611009565b80601f0160208091040260200160405190810160405280929190818152602001828054610a4890611009565b8015610a955780601f10610a6a57610100808354040283529160200191610a95565b820191906000526020600020905b815481529060010190602001808311610a7857829003601f168201915b50505050508152505081526020019060010190610989565b50505050905090565b600160009054906101000a900473ffffffffffffffffffffffffffffffffffffffff1681565b60008060009054906101000a900473ffffffffffffffffffffffffffffffffffffffff1673ffffffffffffffffffffffffffffffffffffffff163373ffffffffffffffffffffffffffffffffffffffff1614610b6d576040517f08c379a0000000000000000000000000000000000000000000000000000000008152600401610b6490611924565b60405180910390fd5b6000600460008573ffffffffffffffffffffffffffffffffffffffff1673ffffffffffffffffffffffffffffffffffffffff168152602001908152602001600020905082816000018190555060018160020160006101000a81548160ff02191690831515021790555060026000815480929190610be9906119d9565b91905055508373ffffffffffffffffffffffffffffffffffffffff167f6ea640312e182de387819fbeb13be00db3171a445412852248559054871c419984604051610c3491906112d1565b60405180910390a2600191505092915050565b60038181548110610c5757600080fd5b90600052602060002090600302016000915090508060000160009054906101000a900473ffffffffffffffffffffffffffffffffffffffff1690806001015490806002018054610ca690611009565b80601f0160208091040260200160405190810160405280929190818152602001828054610cd290611009565b8015610d1f5780601f10610cf457610100808354040283529160200191610d1f565b820191906000526020600020905b815481529060010190602001808311610d0257829003601f168201915b5050505050905083565b600080600080600460008673ffffffffffffffffffffffffffffffffffffffff1673ffffffffffffffffffffffffffffffffffffffff1681526020019081526020016000209050806000015481600101548260020160009054906101000a900460ff16935093509350509193909250565b60008054906101000a900473ffffffffffffffffffffffffffffffffffffffff1673ffffffffffffffffffffffffffffffffffffffff163373ffffffffffffffffffffffffffffffffffffffff1614610e28576040517f08c379a0000000000000000000000000000000000000000000000000000000008152600401610e1f90611924565b60405180910390fd5b600460008273ffffffffffffffffffffffffffffffffffffffff1673ffffffffffffffffffffffffffffffffffffffff16815260200190815260200160002060020160009054906101000a900460ff16610eb7576040517f08c379a0000000000000000000000000000000000000000000000000000000008152600401610eae90611990565b60405180910390fd5b6000600460008373ffffffffffffffffffffffffffffffffffffffff1673ffffffffffffffffffffffffffffffffffffffff16815260200190815260200160002060020160006101000a81548160ff0219169083151502179055506000600460008373ffffffffffffffffffffffffffffffffffffffff1673ffffffffffffffffffffffffffffffffffffffff168152602001908152602001600020600001819055508073ffffffffffffffffffffffffffffffffffffffff167fffa4e6181777692565cf28528fc88fd1516ea86b56da075235fa575af6a4b85560405160405180910390a250565b600081519050919050565b7f4e487b7100000000000000000000000000000000000000000000000000000000600052604160045260246000fd5b7f4e487b7100000000000000000000000000000000000000000000000000000000600052602260045260246000fd5b6000600282049050600182168061102157607f821691505b60208210810361103457611033610fda565b5b50919050565b60008190508160005260206000209050919050565b60006020601f8301049050919050565b600082821b905092915050565b60006008830261109c7fffffffffffffffffffffffffffffffffffffffffffffffffffffffffffffffff8261105f565b6110a6868361105f565b95508019841693508086168417925050509392505050565b6000819050919050565b6000819050919050565b60006110ed6110e86110e3846110be565b6110c8565b6110be565b9050919050565b6000819050919050565b611107836110d2565b61111b611113826110f4565b84845461106c565b825550505050565b600090565b611130611123565b61113b8184846110fe565b505050565b5b8181101561115f57611154600082611128565b600181019050611141565b5050565b601f8211156111a4576111758161103a565b61117e8461104f565b8101602085101561118d578190505b6111a16111998561104f565b830182611140565b50505b505050565b600082821c905092915050565b60006111c7600019846008026111a9565b1980831691505092915050565b60006111e083836111b6565b9150826002028217905092915050565b6111f982610fa0565b67ffffffffffffffff81111561121257611211610fab565b5b61121c8254611009565b611227828285611163565b600060209050601f83116001811461125a5760008415611248578287015190505b61125285826111d4565b8655506112ba565b601f1984166112688661103a565b60005b828110156112905784890151825560018201915060208501945060208101905061126b565b868310156112ad57848901516112a9601f8916826111b6565b8355505b6001600288020188555050505b505050505050565b6112cb816110be565b82525050565b60006020820190506112e660008301846112c2565b92915050565b600080fd5b600073ffffffffffffffffffffffffffffffffffffffff82169050919050565b600061131c826112f1565b9050919050565b61132c81611311565b811461133757600080fd5b50565b60008135905061134981611323565b92915050565b600060208284031215611365576113646112ec565b5b60006113738482850161133a565b91505092915050565b60008115159050919050565b6113918161137c565b82525050565b60006060820190506113ac60008301866112c2565b6113b960208301856112c2565b6113c66040830184611388565b949350505050565b6113d7816110be565b81146113e257600080fd5b50565b6000813590506113f4816113ce565b92915050565b6000602082840312156114105761140f6112ec565b5b600061141e848285016113e5565b91505092915050565b61143081611311565b82525050565b600060208201905061144b6000830184611427565b92915050565b600081519050919050565b600082825260208201905092915050565b6000819050602082019050919050565b61148681611311565b82525050565b611495816110be565b82525050565b600082825260208201905092915050565b60005b838110156114ca5780820151818401526020810190506114af565b60008484015250505050565b6000601f19601f8301169050919050565b60006114f282610fa0565b6114fc818561149b565b935061150c8185602086016114ac565b611515816114d6565b840191505092915050565b6000606083016000830151611538600086018261147d565b50602083015161154b602086018261148c565b506040830151848203604086015261156382826114e7565b9150508091505092915050565b600061157c8383611520565b905092915050565b6000602082019050919050565b600061159c82611451565b6115a6818561145c565b9350836020820285016115b88561146d565b8060005b858110156115f457848403895281516115d58582611570565b94506115e083611584565b925060208a019950506001810190506115bc565b50829750879550505050505092915050565b600060208201905081810360008301526116208184611591565b905092915050565b6000806040838503121561163f5761163e6112ec565b5b600061164d8582860161133a565b925050602061165e858286016113e5565b9150509250929050565b600060208201905061167d6000830184611388565b92915050565b600082825260208201905092915050565b600061169f82610fa0565b6116a98185611683565b93506116b98185602086016114ac565b6116c2816114d6565b840191505092915050565b60006060820190506116e26000830186611427565b6116ef60208301856112c2565b81810360408301526117018184611694565b9050949350505050565b7f596f7520617265206e6f742077686974656c6973746564000000000000000000600082015250565b6000611741601783611683565b915061174c8261170b565b602082019050919050565b6000602082019050818103600083015261177081611734565b9050919050565b7f4e487b7100000000000000000000000000000000000000000000000000000000600052601160045260246000fd5b60006117b1826110be565b91506117bc836110be565b92508282019050808211156117d4576117d3611777565b5b92915050565b7f496e73756666696369656e7420616c6c6f77616e636500000000000000000000600082015250565b6000611810601683611683565b915061181b826117da565b602082019050919050565b6000602082019050818103600083015261183f81611803565b9050919050565b7f496e73756666696369656e7420636f6e74726163742062616c616e6365000000600082015250565b600061187c601d83611683565b915061188782611846565b602082019050919050565b600060208201905081810360008301526118ab8161186f565b9050919050565b7f4f6e6c7920746865206d616e616765722063616e20706572666f726d2074686960008201527f7320616374696f6e000000000000000000000000000000000000000000000000602082015250565b600061190e602883611683565b9150611919826118b2565b604082019050919050565b6000602082019050818103600083015261193d81611901565b9050919050565b7f55736572206973206e6f742077686974656c6973746564000000000000000000600082015250565b600061197a601783611683565b915061198582611944565b602082019050919050565b600060208201905081810360008301526119a98161196d565b9050919050565b60006119bb826110be565b9150600082036119ce576119cd611777565b5b600182039050919050565b60006119e4826110be565b91507fffffffffffffffffffffffffffffffffffffffffffffffffffffffffffffffff8203611a1657611a15611777565b5b60018201905091905056fea26469706673582212207b61cba145a297a925d2448ce2cb4f25ca1bde471499d4e02d5ae70c23556d4664736f6c634300081b0033",
  "linkReferences": {},
  "deployedLinkReferences": {}
}